:040000000C94A101BA
:100004000C9400000C9400000C9400000C9400006C
:100014000C9400000C9400000C9400000C9400005C
:100024000C9400000C9400000C9400000C9400004C
:100034000C9400000C9400000C9400000C9400003C
:100044000C9400000C9400000C9400000C9400002C
:100054000C9400000C9400000C9400000C9400001C
:100064000C9400000C9400000C9400000C9400000C
:100074000C9400000C9400000C9400000C940000FC
:100084000C9400000C9400000507206000000000A0
:100094000000005F00000007000700147F147F14B5
:1000A400242A7F2A122313086462364955225000F9
:1000B40005030000001C2241000041221C00082A04
:1000C4001C2A0808083E08080050300000080808E8
:1000D4000808003030000020100804023E51494551
:1000E4003E00427F400042615149462141454B3127
:1000F4001814127F1027454545393C4A49493001B7
:10010400710905033649494936064949291E00360D
:10011400360000005636000000081422411414145E
:10012400141441221408000201510906324979418C
:100134003E7E1111117E7F494949363E414141229B
:100144007F4141221C7F494949417F090901013E00
:10015400414151327F0808087F00417F410020401F
:10016400413F017F081422417F404040407F020408
:10017400027F7F0408107F3E4141413E7F09090907
:10018400063E4151215E7F091929464649494931B4
:1001940001017F01013F4040403F1F2040201F7F5D
:1001A4002018207F63140814630304780403615146
:1001B40049454300007F4141020408102041417F2A
:1001C40000000402010204404040404000010204D7
:1001D4000020545454787F484444383844444420DC
:1001E400384444487F3854545418087E090102089E
:1001F4001454543C7F0804047800447D400020409B
:10020400443D00007F10284400417F40007C0418D6
:1002140004787C0804047838444444387C14141466
:1002240008081414187C7C08040408485454542006
:10023400043F4440203C4040207C1C2040201C3C87
:100244004030403C44281028440C5050503C4464F6
:10025400544C44000836410000007F000000413641
:10026400080002010204027F4141417F00010307AB
:100274000F1F3F7FFF001027E80364000A000100FE
:100284000010000110000100000000000000010047
:10029400020003000400050006000700080009002E
:1002A4004B00454E442047414D45210053636F7236
:1002B400653A2000312E73746172742067616D6534
:1002C40000322E6F7074696F6E00332E717569740D
:1002D40000312E4561737900322E48617264003317
:1002E4002E417369616E000001002D4E414E00499C
:1002F4004E460000060004008C02110062059202C2
:1003040001004C0DA4020A000005A60208000A051B
:10031400B0020D001205B80209001F05C50207004E
:100324002805CE0207002F05D50207003605DC029A
:1003340008003D05E30201005A0FEC020000F894A6
:10034400EE27ECBBF1E0F5BFE5BFE0936C008DE078
:10035400A2E0BB27ED938A95E9F780E090E1A0E065
:10036400B1E0ED930197E9F7E8EFF2E0859195911B
:10037400009761F0A591B59105901590BF01F0012A
:1003840005900D920197E1F7FB01F0CF8BBFEFEFE2
:10039400EDBFE0E1EEBFC0E0D5E00C94D5042297B8
:1003A4000E94FC0B0FEF1FEFE0E0EE83EF83AE81C2
:1003B400BF8113970CF046C0EE81FF81309719F48A
:1003C400EDEFE0936200AE81BF81119719F4E7EF7E
:1003D400E0936200AE81BF81129719F4EFEDE093D0
:1003E400620040E050E04330E0E05E072CF5042E6C
:1003F400052A39F4E0B1E4703E2F343011F00E9444
:10040400680AE1E0F0E0E417F50739F4E0B1E071DF
:100414003E2F303111F00E94680AE2E0F0E0E41768
:10042400F50739F4E0B1E1703E2F313011F00E944C
:10043400680A4F5F5F4FD7CFEE81FF813196EE831D
:10044400FF83B5CFF8010E94030C28960895E0912C
:10045400500DEA93A091580D0E94B208E091520DFC
:10046400EA93A0915A0D0E94B208E091540DEA93C8
:10047400A0915C0D0E94B208E091560DEA93A09100
:100484005E0D0E94B2080E94CA09DF01EAE4F0E0AE
:100494000E94C90B3196E093500DF093510D0E94C8
:1004A400790AE093540DF093550D0E94790A319620
:1004B400E093520DF093530DE091520DF091530DD2
:1004C400E093560DF093570D0E94CA09DF01E8E24C
:1004D400F0E00E94C90B3196E093580DF093590D4A
:1004E4000E947E0AE0935A0DF0935B0D0E947E0AEF
:1004F4003196E0935C0DF0935D0DE0915C0DF0910D
:100504005D0DE0935E0DF0935F0DE091500DEA9365
:10051400A091580D0E94A808E091520DEA93A09171
:100524005A0D0E94A808E091540DEA93A0915C0D25
:100534000E94A808E091560DEA93A0915E0D0E94D6
:10054400A808E1E008950E94790A0E94830A29F428
:100554000E947E0A0E948A0A59F1E091520DF0919C
:10056400530D0E94830A39F4E0915A0DF0915B0D0A
:100574000E948A0AE9F0E091540DF091550D0E9411
:10058400830A39F4E0915C0DF0915D0D0E948A0AB2
:1005940079F0E091560DF091570D0E94830A39F4D9
:1005A400E0915E0DF0915F0D0E948A0A09F00DC082
:1005B400E0914E0DF0914F0D3196E0934E0DF09376
:1005C4004F0DF60135966F0142DF0895AA24BB242E
:1005D400AC14BD04A4F40E94910AEC91EA930E9425
:1005E400990AAC910E94A808E091440DEA93A09165
:1005F400460D0E94B208F50131965F01E9CF0895D6
:100604000E941E06E5E0F0E06F01E0E0E0934E0D8D
:10061400E0934F0DE1E04E2E552477246624E0E06C
:10062400E093440DE093450DE093460DE093470DB0
:10063400AA24BB24AC14BD0494F40E94910AF601CC
:100644003A96EA19FB09ED93FC930E94990AEAE0B1
:10065400F0E0ED93FC93F50131965F01EBCFF7DE0B
:1006640008952197E0E0E883A0914C0DB0914D0DE1
:100674000E94700BE1E0E41521F40E94A10A0E949B
:10068400A60AE1E0E51511F40E94B40AE1E0E715D9
:1006940029F40E94C30A31970E94CD0AE1E0E615CD
:1006A40029F40E94C30A31960E94CD0AE1E0F0E0E9
:1006B4005F01AC14BD040CF041C00E94910A0E9479
:1006C400D70BDF010E94A10AEA17FB0761F40E941D
:1006D400990A0E94D70BDF01E0915C09F0915D0952
:1006E400EA17FB0709F026C02197E0914E0DE05D63
:1006F400E883A2D2E9E1EA93EAE0EA93A0E0B5E074
:100704000E94A109E1E0EA93E4E1EA93AAE0B5E0FA
:100714000E94A109E2E3EA93E4E1EA93DE0112967E
:100724000E94A109A0EDB7E00E94700BE1E0E9830B
:1007340067DF2196F50131965F01BBCF04DF0E948C
:10074400D20A0E94F80B44F0E091440DF091450D5B
:10075400EC5AFF4F0E94D70A0E94D20AA435E0E067
:10076400BE0744F0E091440DF091450DE455F0408E
:100774000E94D70A0E94DC0A0E94F80B3CF0E09128
:10078400460DF091470DF0960E94CD0A0E94DC0AB6
:10079400D0973CF0E091460DF091470DF0970E9400
:1007A400CD0AE881E030D9F5AA24BB24AC14BD04F9
:1007B400B4F50E94910A0E94D70BE093480DF09380
:1007C400490D0E94990A0E94D70BE0934A0DF093B9
:1007D4004B0DF501A4E7B5E0EE0FFF1FEA0FFB1F79
:1007E4000E94D20AA083B183F501ACE5B9E0EE0F13
:1007F400FF1FEA0FFB1F0E94DC0AA083B183E09174
:10080400480DF091490D0E94D70AE0914A0DF091EC
:100814004B0D0E94CD0AF50131965F01C7CFD6DE9C
:10082400219608950E94E10A159731F4E1E0E41558
:1008340011F0E51509F401C00AC0442455247724B5
:10084400E1E06E2E0E94C30A31960E94CD0AA8816F
:10085400B981129731F4E1E0E41511F0E51509F4DA
:1008640001C00AC044245524E1E07E2E66240E947F
:10087400C30A31970E94CD0AA881B981149731F433
:10088400E1E0E61511F0E71509F401C007C04424BE
:10089400E1E05E2E772466240E94B40AA881B9811F
:1008A400169731F4E1E0E61511F0E71509F401C0FB
:1008B40009C0E1E04E2E5524772466240E94A10A43
:1008C4000E94A60A0C94000AEAE0EA93A5E00E94BA
:1008D400BD09A2E1B5E00E94E60AAFE00E94BD09AD
:1008E400AFE1B5E00E94E60AA9E10E94BD09A8E2D1
:1008F400B5E00E94B109B29916C00E94EB0A80DEED
:1009040022974DDDE883F983A881B9818BDFA9DEC5
:10091400B09B76DEB29905C00E94EB0A8DD1229677
:1009240002C02296EDCFB39936C086D10E94EB0A5D
:10093400EAE0EA93A5E00E94BD09AFE2B5E00E94B7
:10094400E60AAFE00E94BD09A6E3B5E00E94E60A0C
:10095400A9E10E94BD09ADE3B5E00E94B109B299D5
:1009640007C00E94EB0AEBE4F0E00E94EF0A13C018
:10097400B39907C00E94EB0AE2E3F0E00E94EF0A99
:100984000AC0B09907C00E94EB0AE9E1F0E00E94B6
:10099400EF0A01C0CDCFB09905C00E94EB0AA92D82
:1009A40040D1909408952897ECE8F0E0E883F98327
:1009B400E0E0EA83EB83EC83ED83EE81EC7FEE836E
:1009C400E37EE061EE83EF81E078E862EF83DE01AD
:1009D4008CD0EFEFE1BBE6EBE2BBEAEEE093610023
:1009E400E5E1E0936200E0E0E7BBEDE0E8BB6CDF4B
:1009F400FECFFFCF0895AA931A93E0916500EF7E8E
:100A0400E093650018E0F6DFE981E07821F0E091F9
:100A14006500E26003C0E0916500ED7FE09365004E
:100A2400E981EE0FE983E6DFE0916500E460E0939D
:100A34006500E0DFE0916500EB7FE0936500115015
:100A440011F7E0916500E061E093650018810C9472
:100A5400000AAA93E0916500EE7FE0936500A88107
:100A6400CADFE8C0AA93E0916500E160E093650005
:100A7400A881C1DFDFC0AA931A93E981E695E695C0
:100A8400E6951E2FE4E5E19FF001DF01EA81F0E045
:100A9400EA0FFB1FE093600DF093610DE12F1881C5
:100AA4000C94470AAA93E981E068AE2FD2DFE9816A
:100AB400EA93A981E0DFE064AE2FCBDF0C94000A57
:100AC400AA93E981EA93A981EDDFE091600DF091A9
:100AD400610DEE59F24FE0810C94000AAA930E9432
:100AE400F40AA881A083BEDFA5C0BA93AA930E948A
:100AF400FE0BE0916400E0610E94FF0AE061E09374
:100B04006500E0916400E4600E94FF0AEB7FE093DB
:100B14006500E0916400E260E0936400E0916400A9
:100B2400E160E0936400E0916400E8600E94FF0AE1
:100B3400E77FE0936500AAE0B0E00E94700BE091CB
:100B44006500E860E0936500EC81FD81309721F158
:100B5400E681E3701E2FEC81FD81E681E695E69542
:100B6400E7700E2FEC81FD81E781EF773E2FAC819A
:100B7400BD810E94D70BE0934905F0934A05129674
:100B84000E94D70BE0935E05F0935F05AC81BD81B5
:100B940014960E94D70B0DC010E003E032E3E0E0AE
:100BA400F0E0E0934905F0934A05E0935E05F09385
:100BB4005F05E0936005F0936105A1E24ADFE12F50
:100BC400E460AE2F46DFE02FE061AE2F42DFE32F7B
:100BD400E068AE2F3EDFA0E23CDFA1E022D0E1E0FE
:100BE400E0934505E0E0E0934605E1E0E0934B0542
:100BF400E0934C05E0934D05EFEFE0934E05E1E003
:100C0400E0935505E6E5F5E0FA93EA93EFEFEA930E
:100C1400A8E0B0E00E94E7090FD0E1E00E94050CD3
:100C240086C0AA93E881E03011F0ECE001C0E8E06E
:100C3400AE2F0FDF219608950E94FE0B30E0E09165
:100C44004605E03009F03FEFE0E0EA93A0E02ADF58
:100C540008EF11E0F80101501040309719F0A32F6C
:100C64003DDFF8CFE0E0EA93A0E085D30E94050CD5
:100C74000C94660AAA931A930A93AC81A43518F4C7
:100C8400AB81A03320F0198108810C94F509EC8123
:100C9400EA93AC8115DF1E2FEB81E770A1E00E947F
:100CA4007E0B0E2FEA81E03011F0102B03C0E02FF1
:100CB400E0951E23A12F12DF198108810C94F509F8
:100CC400AA931A93ED81EA93AD81FADE1E2FE9818E
:100CD400E73011F0E83039F4EB81EA93AA810E94FD
:100CE400020AEB8308C0E33021F4EB81E095EB8347
:100CF40002C0E03021F4EA81E0951E2302C0E23014
:100D040029F4EA81AB81EA231E2B0EC0E13029F4D9
:100D1400EA81AB81EA231E2707C0E43029F4EA8183
:100D2400E095AB81EA2B1E23A12FD8DE18812696ED
:100D34000895AA9323970E94FC0BA889A43548F42C
:100D4400AF85A03330F4AE85A03019F0AD85A03066
:100D540009F4CCC1EE85E887A889BB27EE85F0E0CD
:100D6400AE0FBF1FA535E0E0BE0720F0A889E4E57B
:100D7400EA1BEE872D85AF85BB27ED85F0E0AE0F2E
:100D8400BF1FD19720F0AF85E0E3EA1BED87A9856B
:100D9400A63009F05BC0EC85E13009F4A7C1E3306B
:100DA40039F4E0916005F0916105309709F49EC132
:100DB4000885ED85E695E695E6953E2FE22FE770EA
:100DC40019F4AD852A17E9F0A02FBB27E32FF0E033
:100DD4000E948E0BAA85BB850E94040B269526953E
:100DE4002695532F5F935F5FE22FAF91EA1748F088
:100DF400102FE12F1150E03019F00E94090BF9CFA8
:100E0400F1CFAE850A1711F1EE85AA85BB85F0E016
:100E14000E94040BED85E77009F03F5F20E02F93FB
:100E24002F5FE32FAF91AE1788F41E851F931F5FCA
:100E3400E02FAF91AE1718F40E94090BF7CFEE859F
:100E4400AE81BF81F0E00E94040BE9CFEF85E7702B
:100E54003E2FED85E03009F449C1EA85FB85EE8338
:100E6400FF8310E00889303009F063C0AD85A830F5
:100E740008F45AC0E985E03011F0E33009F402C007
:100E8400E73009F402C0E83009F402C0E93009F49B
:100E940002C0EA3021F40A93A88904DE04C0E630D3
:100EA40011F40E94160B1F931F5FEE85AF91AE17CE
:100EB400A0F5A985A63051F40E941A0BFA93EA937F
:100EC4000E94F40AA0810E94490A26C0E985E930FB
:100ED40011F450E00EC0EA3011F45FEF0AC00E9432
:100EE4001A0B0E94230B5E2FE985E73011F0E830DE
:100EF40021F40E94290B5E2F06C0E33011F45095B3
:100F040002C0E03019F4A52FADDD06C00E942D0B00
:100F1400EFEFEA93AD85D4DEC6CFEF85E85FEF87C8
:100F2400ED85E850ED87D9C05D8520E0E0E0ED87F0
:100F34007EC0E32FAD85AE0FA93020F42D85E0E00F
:100F4400ED8703C0E8E0E31B2E2F3A93A22F0E9403
:100F5400F7094E2FE985E63011F50E94160B1F9311
:100F64001F5FEE85AF91AE17C8F40E94F40AE081CA
:100F7400E423AE2FE32F0E94860B0E94330BE32F52
:100F8400A42F0E94860BE095E1215E2B0E941A0B90
:100F9400FA93EA93A52F0E94490AE1CF2CC0E930C5
:100FA40011F450E003C0EA30A9F45FEF0E94290B6A
:100FB400AE2FE32F0E947E0B5E2F1F931F5FEE85E3
:100FC400AF91AE1730F40E942D0B4A93A0E078DE67
:100FD400F4CF11C01F931F5FEE85AF91AE1758F485
:100FE4000E943E0BAE2FE32F0E947E0BEA934A939E
:100FF400AD8566DEEFCFED85E03009F477C0AD85D1
:10100400A83028F4ED85E21B5E2FE0E003C0532FE7
:10101400ED85E850ED8710E0EF85E85FEF87E8E0C5
:10102400E31B2E2F0889EA85FB85EE83FF83E52FDA
:10103400F0E0E059FD4F4491E985E63011F50E9456
:10104400160B1F931F5FEE85AF91AE17C8F40E9475
:10105400F40AE081E423AE2FE22F0E947E0B0E946B
:10106400330BE22FA42F0E947E0BE095E1215E2B2F
:101074000E941A0BFA93EA93A52F0E94490AE1CF22
:101084002CC0E93011F450E003C0EA30A9F45FEF5A
:101094000E94290BAE2FE22F0E94860B5E2F1F9316
:1010A4001F5FEE85AF91AE1730F40E942D0B4A936B
:1010B400A0E006DEF4CF11C01F931F5FEE85AF9151
:1010C400AE1758F40E943E0BAE2FE22F0E94860BFF
:1010D400EA934A93AD85F4DDEFCFE885AA85BB8515
:1010E400F0E0EA0FFB1FEA87FB87B3CE0E94030CF4
:1010F400619608950E94E10A0E94F80B24F0E0E052
:10110400F0E00C94000AA881B981A435E0E0BE07A0
:1011140024F0E3E5F0E00C94000AE881F9810C94F2
:10112400000A0E94E10A0E94F80B24F0E0E0F0E0DB
:101134000C94000AA881B981D09724F0EFE2F0E082
:101144000C94000AE881F9810C94000AAA93E981BD
:10115400EA93E981EA93A09145058CDD0C94000A99
:10116400AA93E981EA93E981EA93A091460582DD95
:101174000C94000ABA93AA9323970E944B0B8F01F5
:10118400002E012A19F4E0E0F0E05FC00E94520B47
:101194000F820E94520B0E820E94520B0886EB852E
:1011A400A885EA1718F4E0E0F0E04FC0F8010F5FFB
:1011B4001F4F5491A885BB27EE27A50FBE1FEB85B3
:1011C400F0E0EA17FB0718F0E0E0F0E03EC0EE8143
:1011D400E695E695E6954E2FEE81E77009F04F5FB0
:1011E400EF81E030A1F0A985BA85EC93A885EB8561
:1011F400EA1BF0E0DF01EF81F0E00E948E0BDF01DB
:10120400E42FF0E00E948E0BE00FF11F1EC0980146
:10121400E52FF0E00E0F1F1FA885AF5FA887A15030
:10122400EB85AE1760F4F9012F5F3F4FA491B0E056
:10123400E42FF0E00E948E0B0E0F1F1FEDCFF9017B
:10124400E491A985BA85EC93F8010E94030C2C96CD
:101254000895E0E0E0934705A0914805BB270E946C
:10126400570BF0E0AE0FBF1FE0914C05F0E0AE0F5E
:10127400BF1F57DFE09348050895AA9321970E9462
:101284004B0B309709F455C0AF81AA3009F44FC015
:10129400EF81EA93DE0117966DDFAF01309709F411
:1012A4004AC0E0914B05AE81EA0F3E2FA09147055D
:1012B400BB27F0E0EA0FFB1F8F010535E0E01E07B6
:1012C40018F0032F1127C5DFE0914705EA93E09159
:1012D4004805EA93E885EA930E94570BEA93E1E014
:1012E400EA935A934A93A7E024DDE0914705AE813F
:1012F400EA0FEA93E0914805EA93E0914B05EA93FB
:101304000E94570B0E945E0BE0914705EA93A0915F
:1013140048050E94570BEA0FEA933A93E0914C0573
:101324000E945E0BE4E5F0E0E017F10711F491DFB1
:1013340002C0009347050E94030C28960895BA93AF
:10134400AA931A93EC81EA93AC8115D00E94680B9E
:1013540019F0A12F92DFFACF18810C94F509BA93F2
:10136400AA931A930E94680B19F0A12F86DFFACF73
:1013740018810C94470AAA93A981BB27BBDEE0938A
:101384004705A881BB27CDDEE09348050C94000AED
:10139400E0915A0FF0915B0F60915C0F70915D0FBB
:1013A400ADE6BEE486EC91E40E94960BEE59F84853
:1013B4006F4F7F4FE0935A0FF0935B0F60935C0F76
:1013C40070935D0FFB01FF770895BA93AA93B981D7
:1013D400A881109631F0FC81EB816A8161931197A9
:1013E400E9F7EB81FC8125960895AA93E881F0E062
:1013F400E059FD4FA491E9810E947E0B2296089545
:10140400AA931A93E981E73011F0EA3019F41091A4
:10141400450509C0E93019F41091460504C0E830C7
:10142400A1F410915505E0914605E03049F01030E3
:1014340019F0EFEF188129C0EA81E095188125C0E1
:10144400103019F4E0E0188120C0EA8118811DC031
:10145400BA93AA93EA81E13021F4E881F981E49115
:1014640014C0E23029F4A881B9810E94DB0B0DC0BD
:10147400E33041F4A881B981E0915E05F0915F0504
:10148400099503C0A881B981EC9123960895AA9384
:10149400EB81E03029F4E881A981BA81EC9314C08E
:1014A400E23031F4E881A981BA810E94E70B0CC0D3
:1014B400E33051F4E981FA81FA93EA93AA81E09145
:1014C4006005F0916105099524960895A6E0A49F0E
:1014D400F001A59FF00DEE59FA4FDF01EE81FF8177
:1014E400EE0FFF1FAE0FBF1F0D911C910895E091E9
:1014F400500DF091510D0895E091580DF091590D52
:101504000895A0917405B0917505EA17FB07089535
:10151400A0915C09B0915D09EA17FB070895F501F4
:10152400A4E7B5E0EE0FFF1FAE0FBF1F0895F5014E
:10153400ACE5B9E0EE0FFF1FAE0FBF1F0895E091B9
:101544007405F091750508953196E093440DF09378
:10155400450DE0915C09F0915D09E093460DF0932F
:10156400470D0895ECDF3197E093440DF093450D5A
:10157400E0915C09F0915D09E093460DF093470D0D
:101584000895DDDFE093440DF093450DE0915C098F
:10159400F0915D090895E093460DF093470D089589
:1015A400A091440DB091450D0895E093440DF0933E
:1015B400450D0895A091460DB091470D0895BA9335
:1015C400AA93A881B98108950E94B109EAE0EA9337
:1015D4000895AAEFB0E00C94700BE0934C0DF093D7
:1015E4004D0D0895A0E6BDE0ED91FD913196FE9379
:1015F400EE933197EE59F24F0895E0936400E09131
:1016040065000895EA0FFB1FEE83FF830895EC85C0
:10161400EA93EF81F8853196EF83F8873197FA934F
:10162400EA93A0E00C94490A0A93A8890C943D0516
:10163400EC85EA93EF81F8853196EF83F88731974B
:10164400089566277727DF01CB010C942A0A5A9361
:10165400AA850C94020A0A930395E889EA935A939B
:1016640008955E2FEC85EA93AF81B8858827992782
:101674000E942A0A1E2E08950A930395E889EA9384
:10168400EE85EA93E985FA853196E987FA873197F9
:10169400D8CF0E94FC0BE0914905F0914A050895CA
:1016A400F8010F5F1F4F04900895E0914905F091F0
:1016B4004A053196E4910895EA93E0E0EA93E0E084
:1016C400F0E0FA93EA93A9E00C949B06A981BA810D
:1016D400ED91A983BA831E2FE0300895109639F056
:1016E40080ED97E00197F1F7A8951197C9F7089550
:1016F400F195E195F0400895EE230E2EEA2F19F0AE
:10170400EE0F0A94E9F70895EE230E2EEA2F19F04E
:10171400E6950A94E9F70895FA9FF02DEB9FF00DF2
:10172400EA9FE02DF10D08957A9F702D6B9F700D47
:10173400F89F700DE99F700D6A9F602D710DFB9FDE
:10174400600D711DE89F600D711D8827FA9FF02DB3
:10175400610D781FEB9FF00D611D781FEA9FE02D4E
:10176400F10D681F781F08950024112490E1AA0F39
:10177400BB1F001C111C0E1A1F0A18F40E0E1F1E8C
:1017840001C0A1609A9599F7FD01D0010895E894EC
:10179400B7FF04C0A095B09511966894F7FDA8DF33
:1017A400E3DFFD010EF4A4DF0895ED91FC911197A0
:1017B4000895E199FECFFF93FFB7F894AEBBBFBB8A
:1017C400E09AEDB3FFBFFF910895E19B02C0A89595
:1017D400FCCF9FB7F894AEBBBFBBE09A8DB3E817BC
:1017E40019F0EDBBE29AE19A9FBF089500240A160E
:1017F4000B0608955A934A933A932A931A930A9399
:1018040008955D814C813B812A8119810881089565
:00000001FF
