:020000000C945E
:1000020064010C9400000C9400000C9400000C9409
:1000120000000C9400000C9400000C9400000C945E
:1000220000000C9400000C9400000C9400000C944E
:1000320000000C9400000C9400000C9400000C943E
:1000420000000C9400000C9400000C9400000C942E
:1000520000000C9400000C9400000C9400000C941E
:1000620000000C9400000C9400000C9400000C940E
:1000720000000C9400000C9400000C9400000C94FE
:1000820000000C9400000C940000050720600000A2
:1000920000000000005F00000007000700147F144A
:1000A2007F14242A7F2A12231308646236495522B8
:1000B200500005030000001C2241000041221C00E8
:1000C200082A1C2A0808083E0808005030000008C8
:1000D20008080808003030000020100804023E51D1
:1000E20049453E00427F4000426151494621414517
:1000F2004B311814127F1027454545393C4A49496E
:100102003001710905033649494936064949291E14
:100112000036360000005636000000081422411452
:100122001414141441221408000201510906324920
:1001320079413E7E1111117E7F494949363E414146
:1001420041227F4141221C7F494949417F090901DE
:10015200013E414151327F0808087F00417F410042
:100162002040413F017F081422417F404040407FB0
:100172000204027F7F0408107F3E4141413E7F0915
:100182000909063E4151215E7F091929464649491E
:10019200493101017F01013F4040403F1F20402083
:1001A2001F7F2018207F631408146303047804035C
:1001B200615149454300007F41410204081020413A
:1001C200417F00000402010204404040404000011F
:1001D20002040020545454787F484444383844443C
:1001E2004420384444487F3854545418087E090146
:1001F20002081454543C7F0804047800447D4000F3
:100202002040443D00007F10284400417F40007C94
:10021200041804787C0804047838444444387C1474
:10022200141408081414187C7C0804040848545454
:100232005420043F4440203C4040207C1C2040206D
:100242001C3C4030403C44281028440C5050503C48
:100252004464544C44000836410000007F00000012
:100262004136080002010204027F4141417F000140
:1002720003070F1F3F7FFF001027E80364000A00F7
:100282000100001000011000010000000000000049
:100292000000000001000200030004000500060047
:1002A20007000800090001002D4E414E00494E464C
:1002B20000000A0004008C0211001D0596020100D4
:1002C200550AA8020000F894EE27ECBBF1E0F5BF56
:1002D200E5BFE0936C008DE0A2E0BB27ED938A9529
:1002E200E9F780E090E1A0E0B1E0ED930197E9F752
:1002F200E4EBF2E085919591009761F0A591B591BB
:1003020005901590BF01F00105900D920197E1F75C
:10031200FB01F0CF8BBFEFEFEDBFE0E1EEBFC0E03E
:10032200D5E00C9481030E94D504EEE1F0E05F0178
:10033200E0E0E0935508E0935608EAE2F0E0E0934B
:100342005708F0935808E8E1F0E0E0935908F09379
:100352005A08E1E04E2E552477246624CC24DD246D
:10036200E0E0E0934F08E0935008882499248A142F
:100372009B0494F40E948B05F5013A96E819F90959
:10038200ED93FC930E949305EAE0F0E0ED93FC9379
:10039200F40131964F01EBCF0E949B0508952297FD
:1003A2000E944B060FEF1FEFE0E0EE83EF83AE817A
:1003B200BF8113970CF046C0EE81FF81309719F48C
:1003C200EDEFE0936200AE81BF81119719F4E7EF80
:1003D200E0936200AE81BF81129719F4EFEDE093D2
:1003E200620040E050E04330E0E05E072CF5042E6E
:1003F200052A39F4E0B1E4703E2F343011F00E9446
:10040200A205E1E0F0E0E417F50739F4E0B1E071AC
:100412003E2F303111F00E94A205E2E0F0E0E41735
:10042200F50739F4E0B1E1703E2F313011F00E944E
:10043200A2054F5F5F4FD7CFEE81FF813196EE83EA
:10044200FF83B5CFF8010E94520628960895E091E5
:100452005708F0915808A0912F05B0913005EA177E
:10046200FB0759F4E0915908F0915A08A091BF0690
:10047200B091C006EA17FB0709F02BC0E0915508BE
:10048200F09156083196E0935508F0935608F5011D
:1004920033965F01CA92A0914F080E9448050E94BC
:1004A2005E05DF01E5E5F0E00E9435063196E09356
:1004B2005708F09358080E945E05DF01EFE2F0E072
:1004C2000E9435063196E0935908F0935A080E942B
:1004D2009B050895882499248A149B0484F40E941D
:1004E2008B05EC91EA930E949305AC91C7D2CA9214
:1004F200A0914F08CCD2F40131964F01EDCF08956F
:100502002197E0E0E883ABE4B0E00E94EC05E1E093
:10051200E41521F40E94B3050E94B805E1E0E51557
:1005220011F40E94C305E1E0E71529F40E94CF050A
:1005320031970E94D805E1E0E61529F40E94CF0523
:1005420031960E94D805E1E0F0E04F018A149B0445
:1005520014F50E948B050E944306DF010E94B30539
:10056200EA17FB0761F40E9493050E944306DF012C
:10057200E091BF06F091C006EA17FB0709F007C039
:10058200A4EFB1E00E94EC05E1E0E883CCDEF401E7
:1005920031964F01DBCF5BDF00240C140D0424F0F5
:1005A200F601EC5AFF4F6F01E4E5F0E0CE16DF06EC
:1005B20014F0CE1ADF0A0E94DD050E9447063CF0C5
:1005C200E0914F08F0915008F0960E94D8050E94E1
:1005D200DD05D0973CF0E0914F08F0915008F0977C
:1005E2000E94D805E881E030B9F5882499248A145C
:1005F2009B0494F50E948B050E944306E0935108E8
:10060200F09352080E9493050E944306E093530818
:10061200F0935408F401AFE2B5E0EE0FFF1FEA0FCA
:10062200FB1FC082D182F401AFEBB6E0EE0FFF1FD9
:10063200EA0FFB1F0E94DD05A083B183C090510821
:10064200D0905208E0915308F09154080E94D805C6
:10065200F40131964F01CBCF3DDF219608950E94E0
:10066200E205159731F4E1E0E41511F0E51509F41E
:1006720001C00AC0442455247724E1E06E2E0E9472
:10068200CF0531960E94D805A881B981129731F41D
:10069200E1E0E41511F0E51509F401C00AC04424B3
:1006A2005524E1E07E2E66240E94CF0531970E94F8
:1006B200D805A881B981149731F4E1E0E61511F06B
:1006C200E71509F401C007C04424E1E05E2E772457
:1006D20066240E94C305A881B981169731F4E1E02E
:1006E200E61511F0E71509F401C009C0E1E04E2E4C
:1006F2005524772466240E94B3050E94B805DBC105
:100702002897ECE8F0E0E883F983E0E0EA83EB8302
:10071200EC83ED83EE81EC7FEE83E37EE861EE8392
:10072200EF81E078EE62EF83DE0196D0EFEFE1BB7E
:10073200E6EBE2BBEAEEE0936100E5E1E093620002
:10074200F2DD22972CDEE883F983A881B98187DF65
:10075200D7DE2296F6CFFFCF0895AA931A93E0919F
:100762006500EF7EE093650018E0F6DFE981E0784E
:1007720021F0E0916500E26003C0E0916500ED7F49
:10078200E0936500E981EE0FE983E6DFE091650021
:10079200E460E0936500E0DFE0916500EB7FE093C9
:1007A2006500115011F7E0916500E061E09365008A
:1007B200188181C1AA93E0916500EE7FE093650004
:1007C200A881CBDFEFC0AA93E0916500E160E093DE
:1007D2006500A881C2DFE6C0AA931A93E981E69573
:1007E200E695E6951E2FE4E5E19FF001DF01EA813F
:1007F200F0E0EA0FFB1FE0935B08F0935C08E12F47
:10080200188123960895AA93E981E068AE2FD2DF7A
:10081200E981EA93A981E0DFE064AE2FCBDF4BC12F
:10082200AA93E981EA93A981EEDFE0915B08F09156
:100832005C08E35AF74FE0813EC1AA93ABE5B8E00A
:10084200ED91FD913196FE93EE933197E35AF74F76
:10085200A881A083B8DFA6C0BA93AA930E944D06CE
:10086200E0916400E0610E94E705E061E0936500C9
:10087200E0916400E4600E94E705EB7FE09365008D
:10088200E0916400E260E0936400E0916400E16062
:10089200E0936400E0916400E8600E94E705E77F6E
:1008A200E0936500AAE0B0E00E94EC05E0916500EB
:1008B200E860E0936500EC81FD81309721F1E681EB
:1008C200E3701E2FEC81FD81E681E695E695E770E7
:1008D2000E2FEC81FD81E781EF773E2FAC81BD8148
:1008E2000E944306E0930405F093050512960E94C8
:1008F2004306E0931905F0931A05AC81BD81149665
:100902000E9443060DC010E003E032E3E0E0F0E0B5
:10091200E0930405F0930505E0931905F0931A0599
:10092200E0931B05F0931C05A1E244DFE12FE46094
:10093200AE2F40DFE02FE061AE2F3CDFE32FE06817
:10094200AE2F38DFA0E236DFA1E023D0E1E0E09372
:100952000005E0E0E0930105E1E0E0930605E093A5
:100962000705E0930805EFEFE0930905E1E0E09366
:100972001005E1E1F5E0FA93EA93EFEFEA93A8E0DC
:10098200B0E00E947B0510D0E1E00E94540626965A
:100992000895AA93E881E03011F0ECE001C0E8E0AC
:1009A200AE2F08DF219608950E944D0630E0E091B7
:1009B2000105E03009F03FEFE0E0EA93A0E023DF39
:1009C20008EF11E0F80101501040309719F0A32F01
:1009D20034DFF8CFE0E0EA93A0E062D00E94540650
:1009E20024960895AA931A930A93AC81A43518F415
:1009F200AB81A03320F0198108810C948905EC8128
:100A0200EA93AC810DDF1E2FEB81E770A1E00E941B
:100A1200FA050E2FEA81E03011F0102B03C0E02F0F
:100A2200E0951E23A12F09DF198108810C94890505
:100A32000E94E2050E9447061CF0E0E0F0E03BC0A5
:100A4200A881B981A435E0E0BE071CF0E3E5F0E03F
:100A520032C0E881F9812FC00E94E2050E94470658
:100A62001CF0E0E0F0E027C0A881B981D0971CF02B
:100A7200EFE2F0E020C0E881F9811DC0AA93E9818C
:100A8200EA93E981EA93A0910005ACDF14C0AA932E
:100A9200E981EA93E981EA93A0910105A3DF0BC002
:100AA200AA93A981BB27C4DFE0930205A881BB27D3
:100AB200D3DFE093030522960895E091550AF09161
:100AC200560A6091570A7091580AADE6BEE486EC68
:100AD20091E40E940206EE59F8486F4F7F4FE0936F
:100AE200550AF093560A6093570A7093580AFB010D
:100AF200FF770895BA93AA93B981A881109631F02D
:100B0200FC81EB816A8161931197E9F7EB81FC81AA
:100B120025960895F401AFE2B5E0EE0FFF1FAE0F88
:100B2200BF1F0895F401AFEBB6E0EE0FFF1FAE0F4B
:100B3200BF1F0895E0915708EA93A09159080C94B9
:100B42003F05A6E0A49FF001A59FF00DE35EFA4FDA
:100B5200DF01EE81FF81EE0FFF1FAE0FBF1F0D9170
:100B62001C910895E0912F05F0913005089531967A
:100B72006F01E091BF06F091C006E0934F08F09339
:100B820050080895EFDF31976F01E091BF06F091B1
:100B9200C006E0934F08F09350080895C0902F05C7
:100BA200D0903005E091BF06F091C0060895E09321
:100BB2004F08F09350080895A0914F08B091500843
:100BC2000895BA93AA93A881B9810895E093640025
:100BD200E09165000895109639F080ED97E0019755
:100BE200F1F7A8951197C9F70895F195E195F040AD
:100BF2000895EE230E2EEA2F19F0EE0F0A94E9F76C
:100C020008957A9F702D6B9F700DF89F700DE99F6C
:100C1200700D6A9F602D710DFB9F600D711DE89F25
:100C2200600D711D8827FA9FF02D610D781FEB9FD3
:100C3200F00D611D781FEA9FE02DF10D681F781FEE
:100C420008950024112490E1AA0FBB1F001C111C5F
:100C52000E1A1F0A18F40E0E1F1E01C0A1609A95EB
:100C620099F7FD01D0010895E894B7FF04C0A0955B
:100C7200B09511966894F7FDB8DFE3DFFD010EF43D
:100C8200B4DF0895ED91FC911197089500240A169E
:100C92000B0608955A934A933A932A931A930A9306
:100CA20008955D814C813B812A81198108810895D3
:00000001FF
