:040000000C94460016
:100004000C9400000C9400000C9400000C9400006C
:100014000C9400000C9400000C9400000C9400005C
:100024000C9400000C9400000C9400000C9400004C
:100034000C9400000C9400000C9400000C9400003C
:100044000C9400000C9400000C9400000C9400002C
:100054000C9400000C9400000C9400000C9400001C
:100064000C9400000C9400000C9400000C9400000C
:100074000C9400000C9400000C9400000C940000FC
:100084000C9400000C940000F894EE27ECBBF1E013
:10009400F5BFE5BFE0936C008DE0A2E0BB27ED93D4
:1000A4008A95E9F780E090E1A0E0B1E0ED93019753
:1000B400E9F78BBFEFEFEDBFE0E1EEBFC0E0D5E0C5
:1000C4000C946400E0E0E7BBE0E2E1BBE4E0E8BB01
:1000D400B29902C0E0E201C0E0E0E2BBF9CFFFCF99
:00000001FF
