:040000000C944B0011
:100004000C9400000C9400000C9400000C9400006C
:100014000C9400000C9400000C9400000C9400005C
:100024000C9400000C9400000C9400000C9400004C
:100034000C9400000C9400000C9400000C9400003C
:100044000C9400000C9400000C9400000C9400002C
:100054000C9400000C9400000C9400000C9400001C
:100064000C9400000C9400000C9400000C9400000C
:100074000C9400000C9400000C9400000C940000FC
:100084000C9400000C94000080C0020000058C0059
:100094000000F894EE27ECBBF1E0F5BFE5BFE09378
:1000A4006C008DE0A2E0BB27ED938A95E9F780E030
:1000B40090E1A0E0B1E0ED930197E9F7EEE8F0E01C
:1000C40085919591009761F0A591B5910590159052
:1000D400BF01F00105900D920197E1F7FB01F0CF0C
:1000E4008BBFEFEFEDBFE0E1EEBFC0E0D5E00C94D5
:1000F4007B00E0E0E7BBE4E0E8BBE0E1E1BBE0E09B
:10010400E2BBB29909C0AAEFB0E00E949000949BB0
:1001140002C0949801C0949AF4CFFFCF109639F09E
:1001240080ED97E00197F1F7A8951197C9F7089525
:00000001FF
