:0C0000000C9446000C9400000C940000CE
:10000C000C9400000C9400000C9400000C94000064
:10001C000C9400000C9400000C9400000C94000054
:10002C000C9400000C9400000C9400000C94000044
:10003C000C9400000C9400000C9400000C94000034
:10004C000C9400000C9400000C9400000C94000024
:10005C000C9400000C9400000C9400000C94000014
:10006C000C9400000C9400000C9400000C94000004
:10007C000C9400000C9400000C9400000C940000F4
:10008C00F894EE27ECBBF1E0F5BFE5BFE0936C0014
:10009C008DE0A2E0BB27ED938A95E9F780E090E133
:1000AC00A0E0B1E0ED930197E9F78BBFEFEFEDBF67
:1000BC00E0E1EEBFC0E0D5E00C946400E4E0E7BB07
:1000CC00E8BBE5E0E4BBE5BBB2990EC0AAEFB0E03B
:1000DC000E947C00A89B02C0A89801C0A89AAA9B69
:1000EC0002C0AA9801C0AA9AEFCFFFCF109639F0A0
:1000FC0080ED97E00197F1F7A8951197C9F708954E
:00000001FF
