:0C0000000C9451000C9400000C940000C3
:10000C000C9400000C9400000C9400000C94000064
:10001C000C9400000C9400000C9400000C94000054
:10002C000C9400000C9400000C9400000C94000044
:10003C000C9400000C9400000C9400000C94000034
:10004C000C9400000C9400000C9400000C94000024
:10005C000C9400000C9400000C9400000C94000014
:10006C000C9400000C9400000C9400000C94000004
:10007C000C9400000C9400000C9400000C940000F4
:10008C0068656C6C6F20776F726C640080C00200C6
:10009C00000598000000F894EE27ECBBF1E0F5BFEA
:1000AC00E5BFE0936C008DE0A2E0BB27ED938A9551
:1000BC00E9F780E090E1A0E0B1E0ED930197E9F77A
:1000CC00EAE9F0E085919591009761F0A591B591E1
:1000DC0005901590BF01F00105900D920197E1F785
:1000EC00FB01F0CF8BBFEFEFEDBFE0E1EEBFC0E067
:1000FC00D5E00C948100E0E0E7BBEDE0E8BBE0E884
:10010C00E1BBE2BBA0E17AD047D0E1E0EA93A0E00A
:10011C0036D0ACE8B0E05FD0FFCFFFCFAA93E88138
:10012C00E07111F0DB9A01C0DB98E881E07211F00C
:10013C00DC9A01C0DC98E881E07411F0DD9A01C012
:10014C00DD98E881E07811F0DE9A01C0DE988DE050
:10015C008A95F1F7DA9A8DE08A95F1F7DA988DE0C5
:10016C008A95F1F775C0AA93A881D8DFE881E2954A
:10017C00E883A881D3DF85E88A95F1F769C0AA9353
:10018C00E881F0E0E050FB4FE081A981AE0FEBDF9E
:10019C005980488022960895A2E05CD0ACE0E3DF61
:1001AC00A1E058D0E0E04E2E5E2E0895AA93A881CF
:1001BC00AA3011F0571448F0E0E0EA934394A42DD0
:1001CC00DEDFA881AA3009F443C05394D89AA881E1
:1001DC00CADFD8983DC0BA93AA931A93E981FA81E1
:1001EC003196E983FA833197E4911E2FE03019F0B0
:1001FC00A12FDCDFF3CF188123960895AA93D39A0D
:10020C00D49AD59AD69AD29AD09AD19ADA98D89872
:10021C00D9987880E881E058E0930205E881E054B1
:10022C00E0930305A4E1B0E00E943C0118D017D084
:10023C0016D0A0E273DF88EC90E00197F1F7A8E20A
:10024C0092DFA4E090DFA5E88EDFA6E08CDFA4DFD0
:10025C002196089588DFA3E0B0E00C943C01A0E364
:10026C005DDF88EC90E00197F1F70895109639F076
:10027C0080ED97E00197F1F7A8951197C9F70895CC
:00000001FF
