:100000000C9464010C9400000C9400000C9400000B
:100010000C9400000C9400000C9400000C94000060
:100020000C9400000C9400000C9400000C94000050
:100030000C9400000C9400000C9400000C94000040
:100040000C9400000C9400000C9400000C94000030
:100050000C9400000C9400000C9400000C94000020
:100060000C9400000C9400000C9400000C94000010
:100070000C9400000C9400000C9400000C94000000
:100080000C9400000C9400000C9400000507206004
:10009000000000000000005F0000000700070014DF
:1000A0007F147F14242A7F2A12231308646236499E
:1000B0005522500005030000001C2241000041228F
:1000C0001C00082A1C2A0808083E080800503000B6
:1000D000000808080808003030000020100804025A
:1000E0003E5149453E00427F400042615149462110
:1000F00041454B311814127F1027454545393C4A7C
:1001000049493001710905033649494936064949CB
:10011000291E003636000000563600000008142262
:100120004114141414144122140800020151090648
:10013000324979413E7E1111117E7F494949363E4F
:10014000414141227F4141221C7F494949417F0968
:100150000901013E414151327F0808087F00417F7B
:1001600041002040413F017F081422417F40404030
:10017000407F0204027F7F0408107F3E4141413EE0
:100180007F090909063E4151215E7F09192946462A
:100190004949493101017F01013F4040403F1F2053
:1001A00040201F7F2018207F631408146303047805
:1001B0000403615149454300007F41410204081096
:1001C0002041417F000004020102044040404040C1
:1001D000000102040020545454787F4844443838C5
:1001E00044444420384444487F3854545418087ECA
:1001F000090102081454543C7F0804047800447D2B
:1002000040002040443D00007F10284400417F40D2
:10021000007C041804787C0804047838444444388A
:100220007C14141408081414187C7C08040408486E
:1002300054545420043F4440203C4040207C1C2027
:1002400040201C3C4030403C44281028440C505076
:10025000503C4464544C44000836410000007F0088
:1002600000004136080002010204027F4141417F43
:10027000000103070F1F3F7FFF001027E803640002
:100280000A00010000100001100001000000000041
:10029000000000000000010002000300040005004F
:1002A000060007000800090001002D4E414E0049DC
:1002B0004E4600000A0004008C0211001D05960243
:1002C0000100910DA8020000F894EE27ECBBF1E0CC
:1002D000F5BFE5BFE0936C008DE0A2E0BB27ED9396
:1002E0008A95E9F780E090E1A0E0B1E0ED93019715
:1002F000E9F7E4EBF2E085919591009761F0A59123
:10030000B59105901590BF01F00105900D920197F0
:10031000E1F7FB01F0CF8BBFEFEFEDBFE0E1EEBF08
:10032000C0E0D5E00C94C503AA24BB24A814B904EA
:10033000D4F4E42DE52941F00E94C805E091750B45
:10034000EA93A091770B09C0662049F00E94C80586
:10035000E091790BEA93A0917B0B0E948505F50152
:1003600031965F01E3CF08950E941605E9E0F0E0C1
:100370004F01E0E0E093850BE093860B4424552485
:100380007724E1E06E2ECC24DD24E0E0E0936F0BD7
:10039000E093700BE093750BE093760BE093770B93
:1003A000E093780BE093710BE093720BE093730B87
:1003B000E093740BE093790BE0937A0BE0937B0B63
:1003C000E0937C0B0E949B05DF01E4E5F0E00E94D6
:1003D0000C073196E093870BF093880BE0938B0B1F
:1003E000F0938C0B3196E093890BF0938A0BE0919C
:1003F000890BF0918A0BE0938D0BF0938E0B0E948A
:100400009B05DF01E4E2F0E00E940C073196E093E7
:100410008F0BF093900BE093910BF093920B31962E
:10042000E093930BF093940BE091930BF091940B6A
:10043000E093950BF093960BAA24BB24A814B9045F
:10044000C4F40E94F3050E94FB050E940206EAE044
:10045000F0E0ED93FC930E940A060E94FB050E94C7
:100460001206EBE0F0E0ED93FC93F50131965F01AD
:10047000E5CFE091870BEA93A0918F0B0E947C055A
:10048000E091890BEA93A091910B0E947C05E09189
:100490008B0BEA93A091930B0E947C05E0918D0B4E
:1004A000EA93A091950B0E947C05AA24BB24A81472
:1004B000B904B4F40E94F305EC91EA930E94020699
:1004C000AC910E947C050E940A06EC91EA930E947E
:1004D0001206AC910E947C05F50131965F01E7CFD1
:1004E000089522970E9422070FEF1FEFE0E0EE83AE
:1004F000EF83AE81BF8113970CF046C0EE81FF8180
:10050000309719F4EDEFE0936200AE81BF8111974F
:1005100019F4E7EFE0936200AE81BF81129719F4FE
:10052000EFEDE093620040E050E04330E0E05E0732
:100530002CF5042E052A39F4E0B1E4703E2F343056
:1005400011F00E941A06E1E0F0E0E417F50739F433
:10055000E0B1E0713E2F303111F00E941A06E2E066
:10056000F0E0E417F50739F4E0B1E1703E2F3130E7
:1005700011F00E941A064F5F5F4FD7CFEE81FF81C7
:100580003196EE83FF83B5CFF8010E9429072896A4
:1005900008952197E0E0E883ABE4B0E00E94C30651
:1005A000E1E0E41551F4E0912F05F091300531962A
:1005B0000E942B0631960E943906E1E0E51551F4C0
:1005C000E0912F05F091300531970E942B0631976D
:1005D0000E943906E1E0E715E1F4C0902F05D090C4
:1005E0003005E0914F08F091500831970E9446067F
:1005F000E0913105F0913205E093710BF093720BAD
:10060000E0915108F09152083197E093730BF09309
:10061000740BE1E0E61501F5E091C106F091C20628
:10062000E093750BF093760BE091E109F091E2090C
:1006300031960E944B06E091BF06F091C006E09310
:10064000790BF0937A0BE091DF09F091E009319694
:10065000E0937B0BF0937C0B00240C140D042CF026
:100660000E9450060E941E070CF408C0F601EC5AC6
:10067000FF4F6F01C092750BD092760BE4E5F0E06E
:10068000CE16DF0634F00E945006A435E0E0BE0727
:100690000CF408C0E4E5F0E0CE1ADF0AC092750B56
:1006A000D092760B0E9455060E941E072CF00E94E5
:1006B0005A060E941E070CF405C00E945F06F096C1
:1006C0000E9464060E945506D09724F00E945A06A4
:1006D000D0970CF405C00E945F06F0970E94640654
:1006E000E881E03009F04EC0AA24BB24A814B90464
:1006F0000CF048C0E52DE429E9F00E94F3050E94C2
:1007000067060E946E060E9491060E9498060E944B
:1007100050060E94A6060E945A060E94B006E09368
:10072000750BF093760BE091830BF091840B0E9494
:100730004B0624C0662011F10E94F3050E94670653
:100740000E946E060E9491060E949806A091790B65
:10075000B0917A0B0E94A606A0917B0BB0917C0B06
:100760000E94B006E093790BF0937A0BE091830B33
:10077000F091840BE0937B0BF0937C0BF5013196A9
:100780005F01B4CFD1DD219608952897ECE8F0E021
:10079000E883F983E0E0EA83EB83EC83ED83EE8189
:1007A000EC7FEE83E37EE061EE83EF81E078E86248
:1007B000EF83DE0193D0EFEFE1BBE6EBE2BBEAEEC5
:1007C000E0936100E5E1E0936200CEDD229789DEEF
:1007D000E883F983DEDE2296F9CFFFCF0895AA934E
:1007E0001A93E0916500EF7EE093650018E0F6DF74
:1007F000E981E07821F0E0916500E26003C0E091DA
:100800006500ED7FE0936500E981EE0FE983E6DFA7
:10081000E0916500E460E0936500E0DFE091650051
:10082000EB7FE0936500115011F7E0916500E06106
:10083000E093650018817DC1AA93E0916500EE7F89
:10084000E0936500A881CBDFEFC0AA93E09165003B
:10085000E160E0936500A881C2DFE6C0AA931A9325
:10086000E981E695E695E6951E2FE4E5E19FF00126
:10087000DF01EA81F0E0EA0FFB1FE093970BF093B2
:10088000980BE12F188123960895AA93E981E068D7
:10089000AE2FD2DFE981EA93A981E0DFE064AE2FD9
:1008A000CBDF47C1AA93E981EA93A981EEDFE0910A
:1008B000970BF091980BE756F44FE0813AC1AA9359
:1008C000A7E9BBE0ED91FD913196FE93EE93319750
:1008D000E756F44FA881A083B8DFA6C0BA93AA93C5
:1008E0000E942407E0916400E0610E94B706E06185
:1008F000E0936500E0916400E4600E94B706EB7F3E
:10090000E0936500E0916400E260E0936400E091B0
:100910006400E160E0936400E0916400E8600E949C
:10092000B706E77FE0936500AAE0B0E00E94C30647
:10093000E0916500E860E0936500EC81FD8130970F
:1009400021F1E681E3701E2FEC81FD81E681E695C1
:10095000E695E7700E2FEC81FD81E781EF773E2F62
:10096000AC81BD810E941A07E0930405F093050550
:1009700012960E941A07E0931905F0931A05AC81AC
:10098000BD8114960E941A070DC010E003E032E307
:10099000E0E0F0E0E0930405F0930505E09319052D
:1009A000F0931A05E0931B05F0931C05A1E244DFC8
:1009B000E12FE460AE2F40DFE02FE061AE2F3CDF9F
:1009C000E32FE068AE2F38DFA0E236DFA1E023D0CE
:1009D000E1E0E0930005E0E0E0930105E1E0E09371
:1009E0000605E0930705E0930805EFEFE09309059E
:1009F000E1E0E0931005E1E1F5E0FA93EA93EFEF2F
:100A0000EA93A8E0B0E00E94B80510D0E1E00E94AF
:100A10002B0726960895AA93E881E03011F0ECE0C8
:100A200001C0E8E0AE2F08DF219608950E94240758
:100A300030E0E0910105E03009F03FEFE0E0EA93BB
:100A4000A0E023DF08EF11E0F801015010403097DB
:100A500019F0A32F34DFF8CFE0E0EA93A0E05ED0F6
:100A60000E942B0724960895AA931A930A93AC81A7
:100A7000A43518F4AB81A03320F0198108810C94BF
:100A8000C605EC81EA93AC810DDF1E2FEB81E77088
:100A9000A1E00E94D1060E2FEA81E03011F0102B68
:100AA00003C0E02FE0951E23A12F09DF19810881E3
:100AB0000C94C6050E94BC061CF0E0E0F0E039C0D2
:100AC000A881B981A435E0E0BE071CF0E3E5F0E0C1
:100AD00030C0E881F9812DC00E94BC061CF0E0E026
:100AE000F0E027C0A881B981D0971CF0EFE2F0E0D8
:100AF00020C0E881F9811DC0AA93E981EA93E981C8
:100B0000EA93A0910005B0DF14C0AA93E981EA93AB
:100B1000E981EA93A0910105A7DF0BC0AA93A981FF
:100B2000BB27C8DFE0930205A881BB27D5DFE09390
:100B3000030522960895E091910DF091920D609138
:100B4000930D7091940DADE6BEE486EC91E40E94A5
:100B5000D906EE59F8486F4F7F4FE093910DF0930F
:100B6000920D6093930D7093940DFB01FF770895A0
:100B7000BA93AA93B981A881109631F0FC81EB81D8
:100B80006A8161931197E9F7EB81FC8125960895BD
:100B9000F501AFE2B5E0EE0FFF1FAE0FBF1FEC9106
:100BA000EA93F501AFE4B8E0EE0FFF1FAE0FBF1FF1
:100BB000AC910E947C05AFEBB6E0F501EE0FFF1F94
:100BC000AE0FBF1FEC91EA93AFEDB9E0F501EE0F68
:100BD000FF1FAE0FBF1FAC910E947C05CA92A0916F
:100BE0006F0B0C948505F501AFE2B5E0EE0FFF1F2A
:100BF000AE0FBF1F0895F4017496EA19FB09ED9337
:100C0000FC930895F501AFE4B8E0EE0FFF1FAE0FBF
:100C1000BF1F0895AFEBB6E0F501EE0FFF1FAE0F5B
:100C2000BF1F0895AFEDB9E0F501EE0FFF1FAE0F46
:100C3000BF1F0895A6E0A49FF001A59FF00DE35EFD
:100C4000FA4FDF01EE81FF81EE0FFF1FAE0FBF1FD6
:100C50000D911C9108956F01E0914F08F09150089B
:100C6000E0936F0BF093700BE091BF06F091C0061C
:100C70000895E093750BF093760BE091DF09F09106
:100C8000E009E093770BF093780B0895E0936F0BF6
:100C9000F093700B0895E093770BF093780B089521
:100CA000A091750BB091760B0895A0916F0BB09148
:100CB000700B0895A091770BB091780B0895E09197
:100CC0006F0BF091700B0895E1DFF9DFE4CF0E9424
:100CD0001A07E0937D0BF0937E0B94CF0E941A07C6
:100CE000E0937F0BF093800BF501AFE2B5E0EE0FE0
:100CF000FF1FEA0FFB1FC082D182F501AFE4B8E00D
:100D0000EE0FFF1FEA0FFB1FD0DFA083B183C0905F
:100D10007D0BD0907E0BE0917F0BF091800BB6DFC6
:100D200079CF0E941A07E093810BF093820B7ACF60
:100D30000E941A07E093830BF093840BAFEBB6E0AD
:100D4000F501EE0FFF1FEA0FFB1F0895A083B1838B
:100D5000AFEDB9E0F501EE0FFF1FEA0FFB1F08959D
:100D6000A083B183E091810BF091820B0895E09311
:100D70006400E09165000895BA93AA93A881B981AF
:100D80000E941E070895109639F080ED97E00197B4
:100D9000F1F7A8951197C9F70895F195E195F040FD
:100DA0000895EE230E2EEA2F19F0EE0F0A94E9F7BC
:100DB00008957A9F702D6B9F700DF89F700DE99FBD
:100DC000700D6A9F602D710DFB9F600D711DE89F76
:100DD000600D711D8827FA9FF02D610D781FEB9F24
:100DE000F00D611D781FEA9FE02DF10D681F781F3F
:100DF00008950024112490E1AA0FBB1F001C111CB0
:100E00000E1A1F0A18F40E0E1F1E01C0A1609A953B
:100E100099F7FD01D0010895E894B7FF04C0A095AB
:100E2000B09511966894F7FDB8DFE3DFFD010EF48D
:100E3000B4DF0895ED91FC911197089500240A16EE
:100E40000B0608955A934A933A932A931A930A9356
:100E500008955D814C813B812A8119810881089523
:00000001FF
