:020000000C945E
:1000020059010C9400000C9400000C9400000C9414
:1000120000000C9400000C9400000C9400000C945E
:1000220000000C9400000C9400000C9400000C944E
:1000320000000C9400000C9400000C9400000C943E
:1000420000000C9400000C9400000C9400000C942E
:1000520000000C9400000C9400000C9400000C941E
:1000620000000C9400000C9400000C9400000C940E
:1000720000000C9400000C9400000C9400000C94FE
:1000820000000C9400000C940000050720600000A2
:1000920000000000005F00000007000700147F144A
:1000A2007F14242A7F2A12231308646236495522B8
:1000B200500005030000001C2241000041221C00E8
:1000C200082A1C2A0808083E0808005030000008C8
:1000D20008080808003030000020100804023E51D1
:1000E20049453E00427F4000426151494621414517
:1000F2004B311814127F1027454545393C4A49496E
:100102003001710905033649494936064949291E14
:100112000036360000005636000000081422411452
:100122001414141441221408000201510906324920
:1001320079413E7E1111117E7F494949363E414146
:1001420041227F4141221C7F494949417F090901DE
:10015200013E414151327F0808087F00417F410042
:100162002040413F017F081422417F404040407FB0
:100172000204027F7F0408107F3E4141413E7F0915
:100182000909063E4151215E7F091929464649491E
:10019200493101017F01013F4040403F1F20402083
:1001A2001F7F2018207F631408146303047804035C
:1001B200615149454300007F41410204081020413A
:1001C200417F00000402010204404040404000011F
:1001D20002040020545454787F484444383844443C
:1001E2004420384444487F3854545418087E090146
:1001F20002081454543C7F0804047800447D4000F3
:100202002040443D00007F10284400417F40007C94
:10021200041804787C0804047838444444387C1474
:10022200141408081414187C7C0804040848545454
:100232005420043F4440203C4040207C1C2040206D
:100242001C3C4030403C44281028440C5050503C48
:100252004464544C44000836410000007F00000012
:100262004136080002010204027F4141417F000140
:1002720003070F1F3F7FFF000A0014000A0005005A
:1002820005000A0048656C6C6F20776F726C640021
:1002920001002D4E414E00494E4600000C00000563
:1002A20086020C000C05860201002F079202000054
:1002B200F894EE27ECBBF1E0F5BFE5BFE0936C00EC
:1002C2008DE0A2E0BB27ED938A95E9F780E090E10B
:1002D200A0E0B1E0ED930197E9F7EEE9F2E0859154
:1002E2009591009761F0A591B59105901590BF0188
:1002F200F00105900D920197E1F7FB01F0CF8BBF62
:10030200EFEFEDBFE0E1EEBFC0E0D5E00C94890174
:100312002897ECE8F0E0E883F983E0E0EA83EB83F6
:10032200EC83ED83EE81EC7FEE83E37EE861EE8386
:10033200EF81E078EE62EF83DE01A0D0E0E0E7BB80
:10034200E4E0E8BB2C978CE0A0E0B0E0EAE7F2E062
:100352000E949207E0E0EA93A8E20E943506A0E03C
:10036200B5E00E942506A4EFB1E00E943D07E0E05F
:10037200EA93A0E00E943506ACE0B5E00E942506B3
:100382002C96E0CFFFCF0895AA931A93E0916500CF
:10039200EF7EE093650018E0F6DFE981E07821F076
:1003A200E0916500E26003C0E0916500ED7FE093BB
:1003B2006500E981EE0FE983E6DFE0916500E46024
:1003C200E0936500E0DFE0916500EB7FE09365007C
:1003D200115011F7E0916500E061E093650018812A
:1003E2000C945A06AA93E0916500EE7FE0936500B3
:1003F200A881CADFE8C0AA93E0916500E160E093BA
:100402006500A881C1DFDFC0AA931A93E981E6954E
:10041200E695E6951E2FE4E5E19FF001DF01EA8112
:10042200F0E0EA0FFB1FE0933505F0933605E12F6C
:1004320018810C94A106AA93E981E068AE2FD2DF5D
:10044200E981EA93A981E0DFE064AE2FCBDF0C946F
:100452005A06AA93E981EA93A981EDDFE091350575
:10046200F0913605E95CFA4FE0810C945A06AA93A2
:100472000E94C206A881A083BEDFA5C0BA93AA9338
:100482000E948607E0916400E0610E94CD06E0616F
:10049200E0936500E0916400E4600E94CD06EB7F8A
:1004A200E0936500E0916400E260E0936400E09113
:1004B2006400E160E0936400E0916400E8600E94FF
:1004C200CD06E77FE0936500AAE0B0E00E943D0719
:1004D200E0916500E860E0936500EC81FD81309772
:1004E20021F1E681E3701E2FEC81FD81E681E69524
:1004F200E695E7700E2FEC81FD81E781EF773E2FC5
:10050200AC81BD810E945F07E0931C05F0931D053D
:1005120012960E945F07E0933105F0933205AC8199
:10052200BD8114960E945F070DC010E003E032E324
:10053200E0E0F0E0E0931C05F0931D05E093310547
:10054200F0933205E0933305F0933405A1E24ADFDC
:10055200E12FE460AE2F46DFE02FE061AE2F42DFF5
:10056200E32FE068AE2F3EDFA0E23CDFA1E022D025
:10057200E1E0E0931805E0E0E0931905E1E0E093A3
:100582001E05E0931F05E0932005EFEFE0932105A0
:10059200E1E0E0932805E9E2F5E0FA93EA93EFEF70
:1005A200EA93A8E0B0E00E9441060FD0E1E00E9489
:1005B2008D0760C0AA93E881E03011F0ECE001C041
:1005C200E8E0AE2F0FDF219608950E94860730E003
:1005D200E0911905E03009F03FEFE0E0EA93A0E096
:1005E2002ADF08EF11E0F80101501040309719F0AE
:1005F200A32F3DDFF8CFE0E0EA93A0E035D30E94DD
:100602008D070C94C006AA931A93ED81EA93AD81EB
:1006120020DF1E2FE981E73011F0E83039F4EB8159
:10062200EA93AA810E945C06EB8308C0E33021F4BE
:10063200EB81E095EB8302C0E03021F4EA81E095A2
:100642001E2302C0E23029F4EA81AB81EA231E2B89
:100652000EC0E13029F4EA81AB81EA231E2707C0EC
:10066200E43029F4EA81E095AB81EA2B1E23A12F25
:10067200FEDE188126960895AA9323970E94840786
:10068200A889A43548F4AF85A03330F4AE85A030F4
:1006920019F0AD85A03009F4CCC1EE85E887A889B0
:1006A200BB27EE85F0E0AE0FBF1FA535E0E0BE0729
:1006B20020F0A889E4E5EA1BEE872D85AF85BB27EC
:1006C200ED85F0E0AE0FBF1FD19720F0AF85E0E3DC
:1006D200EA1BED87A985A63009F05BC0EC85E13005
:1006E20009F4A7C1E33039F4E0913305F091340500
:1006F200309709F49EC10885ED85E695E695E69565
:100702003E2FE22FE77019F4AD852A17E9F0A02FEA
:10071200BB27E32FF0E00E945707AA85BB850E9402
:10072200D206269526952695532F5F935F5FE22F7B
:10073200AF91EA1748F0102FE12F1150E03019F075
:100742000E94D706F9CFF1CFAE850A1711F1EE85D7
:10075200AA85BB85F0E00E94D206ED85E77009F01C
:100762003F5F20E02F932F5FE32FAF91AE1788F406
:100772001E851F931F5FE02FAF91AE1718F40E94E2
:10078200D706F7CFEE85AE81BF81F0E00E94D20698
:10079200E9CFEF85E7703E2FED85E03009F449C1DE
:1007A200EA85FB85EE83FF8310E00889303009F08B
:1007B20063C0AD85A83008F45AC0E985E03011F075
:1007C200E33009F402C0E73009F402C0E83009F46A
:1007D20002C0E93009F402C0EA3021F40A93A88980
:1007E2002ADE04C0E63011F40E94E4061F931F5F64
:1007F200EE85AF91AE17A0F5A985A63051F40E94FF
:10080200E806FA93EA930E94C206A0810E94A30618
:1008120026C0E985E93011F450E00EC0EA3011F447
:100822005FEF0AC00E94E8060E94F1065E2FE9858A
:10083200E73011F0E83021F40E94F7065E2F06C07F
:10084200E33011F4509502C0E03019F4A52FD3DD46
:1008520006C00E94FB06EFEFEA93AD85D4DEC6CF59
:10086200EF85E85FEF87ED85E850ED87D9C05D85BC
:1008720020E0E0E0ED877EC0E32FAD85AE0FA9302A
:1008820020F42D85E0E0ED8703C0E8E0E31B2E2F86
:100892003A93A22F0E9451064E2FE985E63011F5B8
:1008A2000E94E4061F931F5FEE85AF91AE17C8F456
:1008B2000E94C206E081E423AE2FE32F0E944F077D
:1008C2000E940107E32FA42F0E944F07E095E12128
:1008D2005E2B0E94E806FA93EA93A52F0E94A306D4
:1008E200E1CF2CC0E93011F450E003C0EA30A9F4A2
:1008F2005FEF0E94F706AE2FE32F0E9447075E2F9D
:100902001F931F5FEE85AF91AE1730F40E94FB0676
:100912004A93A0E078DEF4CF11C01F931F5FEE85EB
:10092200AF91AE1758F40E940C07AE2FE32F0E942E
:100932004707EA934A93AD8566DEEFCFED85E03057
:1009420009F477C0AD85A83028F4ED85E21B5E2F4F
:10095200E0E003C0532FED85E850ED8710E0EF850E
:10096200E85FEF87E8E0E31B2E2F0889EA85FB8525
:10097200EE83FF83E52FF0E0E059FD4F4491E985D6
:10098200E63011F50E94E4061F931F5FEE85AF91DA
:10099200AE17C8F40E94C206E081E423AE2FE22F14
:1009A2000E9447070E940107E22FA42F0E944707D7
:1009B200E095E1215E2B0E94E806FA93EA93A52FC7
:1009C2000E94A306E1CF2CC0E93011F450E003C02D
:1009D200EA30A9F45FEF0E94F706AE2FE22F0E94E1
:1009E2004F075E2F1F931F5FEE85AF91AE1730F456
:1009F2000E94FB064A93A0E006DEF4CF11C01F93CB
:100A02001F5FEE85AF91AE1758F40E940C07AE2F10
:100A1200E22F0E944F07EA934A93AD85F4DDEFCFB0
:100A2200E885AA85BB85F0E0EA0FFB1FEA87FB8712
:100A3200B3CE0E948B07619608950E9419071CF09D
:100A4200E0E0F0E036C1A881B981A435E0E0BE075C
:100A52001CF0E3E5F0E02DC1E881F9812AC10E9492
:100A620019071CF0E0E0F0E024C1A881B981D09719
:100A72001CF0EFE2F0E01DC1E881F9811AC1BA93DE
:100A8200AA9323970E9420078F01002E012A19F4AE
:100A9200E0E0F0E05FC00E9427070F820E94270774
:100AA2000E820E9427070886EB85A885EA1718F4AC
:100AB200E0E0F0E04FC0F8010F5F1F4F5491A885AE
:100AC200BB27EE27A50FBE1FEB85F0E0EA17FB0759
:100AD20018F0E0E0F0E03EC0EE81E695E695E6959E
:100AE2004E2FEE81E77009F04F5FEF81E030A1F009
:100AF200A985BA85EC93A885EB85EA1BF0E0DF01B6
:100B0200EF81F0E00E945707DF01E42FF0E00E943E
:100B12005707E00FF11F1EC09801E52FF0E00E0FFE
:100B22001F1FA885AF5FA887A150EB85AE1760F4A1
:100B3200F9012F5F3F4FA491B0E0E42FF0E00E9453
:100B420057070E0F1F1FEDCFF901E491A985BA8552
:100B5200EC93F8010E948B072C960895E0E0E09355
:100B62001A05A0911B05BB270E942C07F0E0AE0FCF
:100B7200BF1FE0911F05F0E0AE0FBF1F70DFE093D3
:100B82001B050895AA9321970E942007309709F424
:100B920055C0AF81AA3009F44FC0EF81EA93DE015C
:100BA20017966DDFAF01309709F44AC0E0911E0538
:100BB200AE81EA0F3E2FA0911A05BB27F0E0EA0FA3
:100BC200FB1F8F010535E0E01E0718F0032F1127E8
:100BD200C5DFE0911A05EA93E0911B05EA93E885E7
:100BE200EA930E942C07EA93E1E0EA935A934A932C
:100BF200A7E042DDE0911A05AE81EA0FEA93E091A7
:100C02001B05EA93E0911E05EA930E942C070E94BD
:100C12003307E0911A05EA93A0911B050E942C0765
:100C2200EA0FEA933A93E0911F050E943307E4E545
:100C3200F0E0E017F10711F491DF02C000931A050A
:100C42000E948B0728960895BA93AA931A93A981B2
:100C5200BA81ED91A983BA831E2FE03019F0A12F3A
:100C620091DFF5CF18816CC0AA93A981BB27E5DE7D
:100C7200E0931A05A881BB27F2DEE0931B0519C099
:100C8200BA93AA93B981A881109631F0FC81EB81C5
:100C92006A8161931197E9F7EB81FC8125960895AA
:100CA200AA93E881F0E0E059FD4FA491E9810E9406
:100CB200470722960895AA931A93E981E73011F023
:100CC200EA3019F41091180509C0E93019F41091AD
:100CD200190504C0E830A1F410912805E091190526
:100CE200E03049F0103019F0EFEF188129C0EA81A5
:100CF200E095188125C0103019F4E0E0188120C079
:100D0200EA8118811DC0BA93AA93EA81E13021F4E5
:100D1200E881F981E49114C0E23029F4A881B98113
:100D22000E9463070DC0E33041F4A881B981E091CC
:100D32003105F0913205099503C0A881B981EC9182
:100D420023960895AA93EB81E03029F4E881A981E2
:100D5200BA81EC9314C0E23031F4E881A981BA81FE
:100D62000E946F070CC0E33051F4E981FA81FA93D3
:100D7200EA93AA81E0913305F0913405099524960E
:100D82000895A5E3B5E0ED91FD913196FE93EE93C2
:100D92003197E95CFA4F0895E0936400E0916500B1
:100DA2000895EA0FFB1FEE83FF830895EC85EA9313
:100DB200EF81F8853196EF83F8873197FA93EA93BA
:100DC200A0E00C94A3060A93A8890C940502EC8572
:100DD200EA93EF81F8853196EF83F887319708958A
:100DE20066277727DF01CB010C9484065A93AA85E4
:100DF2000C945C060A930395E889EA935A93089542
:100E02005E2FEC85EA93AF81B885882799270E94E7
:100E120084061E2E08950A930395E889EA93EE85C7
:100E2200EA93E985FA853196E987FA873197D8CF2F
:100E3200BA93AA93A881B9810E94800708950E945B
:100E42008407E0911C05F0911D050895F8010F5FDC
:100E52001F4F04900895E0911C05F0911D053196F5
:100E6200E4910895EA93E0E0EA93E0E0F0E0FA9397
:100E7200EA93A9E00C943D03109639F080ED97E0D7
:100E82000197F1F7A8951197C9F70895EE230E2E51
:100E9200EA2F19F0EE0F0A94E9F70895EE230E2EC9
:100EA200EA2F19F0E6950A94E9F70895FA9FF02DD2
:100EB200EB9FF00DEA9FE02DF10D0895ED91FC916D
:100EC20011970895E199FECFFF93FFB7F894AEBB57
:100ED200BFBBE09AEDB3FFBFFF910895E19B02C053
:100EE200A895FCCF9FB7F894AEBBBFBBE09A8DB379
:100EF200E81719F0EDBBE29AE19A9FBF089500242A
:100F02000A160B0608955A934A933A932A931A9310
:100F12000A9308955D814C813B812A811981088160
:100F22000895AC0FBD1F05900D928A95E1F70895C3
:00000001FF
