:0C0000000C946B000C9400000C940000A9
:10000C000C9400000C9400000C9400000C94000064
:10001C000C9400000C9400000C9400000C94000054
:10002C000C9400000C9400000C9400000C94000044
:10003C000C9400000C9400000C9400000C94000034
:10004C000C9400000C9400000C9400000C94000024
:10005C000C9400000C9400000C9400000C94000014
:10006C000C9400000C9400000C9400000C94000004
:10007C000C9400000C9400000C9400000C940000F4
:10008C001027E80364000A000100001000011000B2
:10009C000100010002000300040005000600070037
:1000AC00080009002575000001002D4E414E004945
:1000BC004E46000080C0110000059E000100220584
:1000CC00B40002002605C0000000F894EE27ECBB3B
:1000DC00F1E0F5BFE5BFE0936C008DE0A2E0BB273B
:1000EC00ED938A95E9F780E090E1A0E0B1E0ED9323
:1000FC000197E9F7E2ECF0E085919591009761F0BA
:10010C00A591B59105901590BF01F00105900D9248
:10011C000197E1F7FB01F0CF8BBFEFEFEDBFE0E113
:10012C00EEBFC0E0D5E00C94EC000E94E80340E088
:10013C0050E04330E0E05E070CF044C0042E052A8A
:10014C0019F4EDEFE0936200E1E0F0E0E417F5075D
:10015C0019F4E7EFE0936200E2E0F0E0E417F50752
:10016C0019F4EFEDE093620020E030E02330E0E0A2
:10017C003E072CF5022E032A39F4E0B1E4701E2F51
:10018C00143011F00E945E03E1E0F0E0E217F30797
:10019C0039F4E0B1E0711E2F103111F00E945E03B2
:1001AC00E2E0F0E0E217F30739F4E0B1E1701E2F62
:1001BC00113011F00E945E032F5F3F4FD7CF4F5F7E
:1001CC005F4FB7CF0E94EF0326960895EFEFE1BB88
:1001DC00E6EBE2BBA0E10E941603EAEEE0936100BD
:1001EC00E5E1E0936200A1DF0E94E402FCCFFFCFC7
:1001FC00BA93AA931A930A93AA81BB8112960E946E
:10020C00DB03309759F1AA81BB8114960E94DB0362
:10021C008F01309761F00230E0E01E0798F0F80192
:10022C0031978F01AA81BB811496ED93FC93AA811F
:10023C00BB811296ED91FD913196FE93EE93319721
:10024C00AC81A083AA81BB810E94DB03FF232AF02F
:10025C00ED91FD913196FE93EE9306C0AA81BB8180
:10026C00EFEFFFEFED93FC9319810881259608952C
:10027C00BA93AA9326970E94E80310E0AC85BD853B
:10028C00E0E0F0E0ED93FC93EA89FB893196EA8B90
:10029C00FB8B3197E4912E2FE03009F415C1E12F3F
:1002AC00E03039F4253211F411E002C00E948A03C7
:1002BC000AC1E130A9F4253219F40E948A0302C163
:1002CC0012E040E000E02D3211F401E0FCC02B32D2
:1002DC0011F44BE2F8C0203211F440E2F4C002C039
:1002EC00E23039F450E013E0203311F40068EBC035
:1002FC0003C0E33009F0E7C0203310F02A3308F0D4
:10030C0007C0AAE05A9F502DE22FE0535E0FDBC0CE
:10031C00E22FE33649F40E949103E889F989A4811C
:10032C00AA930E949703CEC0E33741F40E94910335
:10033C000E949D030E9445031E2F0AC0E03761F402
:10034C000E9491030E949D030E9451031E2F08607E
:10035C0002600F7730E034C0E43611F0E93611F466
:10036C00046002C0E53731F4ECE8F0E0EE83FF8383
:10037C0015E00CC0E83511F4086003C0E83709F04B
:10038C00A1C0E6E9F0E0EE83FF8314E002FF14C0A5
:10039C000E9491030E94A703AB85AA233AF4EA8535
:1003AC00FB850E94D203EA87FB874DE2403011F0B7
:1003BC001F5F01C00B7F04C00E9491030E94A70322
:1003CC0000FD11C0151778F407FF08C002FF04C028
:1003DC000B7F242F115001C020E301C020E20E94AA
:1003EC008A035150EFCF312F01FF17C03030A1F0ED
:1003FC0003FF06C0EE81FF812591EE83FF8305C0CC
:10040C00AE81BF812D91AE83BF830E948A03503091
:10041C0009F051503150EACF4BC020E3EE81FF81FF
:10042C000E94DF03E887F987EE81FF813296EE8325
:10043C00FF83E885F985AA85BB85AE17BF0750F009
:10044C002F5FA885B985EA85FB85EA1BFB0BEA873C
:10045C00FB87EFCF2A3328F003FF02C0295F01C0CE
:10046C00295D04FD1AC0213320F4A885B9851197A4
:10047C0009F409C0531710F000FF01C013C020E2AB
:10048C0007FF0BC020E3006102FF07C00B7F4A93FC
:10049C000E949703503009F051500E948A0350304B
:1004AC0009F051503150A885B985129708F0B5CF95
:1004BC0000FF08C0503031F05150E0E2EA930E9446
:1004CC009703F8CF10E0E0CEAC85BD850E94DB032E
:1004DC000E94EF0364960895FF92F82E26970E94CF
:1004EC00EA030E94AF03309719F4EFEFFFEF23C03C
:1004FC00DE0116960E94CE038D010E94AF03EE839F
:10050C00FF83E0E0E887E987DE011A960E94CE03BC
:10051C000E94DB03FA93EA931A930A93EEEFF0E04E
:10052C00FA93EA93DE011A96A3DE9F01AE81BF8196
:10053C00E0E0EC93F9010E94F1032A96FF900895F4
:10054C00AA93E881E07111F0DB9A01C0DB98E88195
:10055C00E07211F0DC9A01C0DC98E881E07411F0D3
:10056C00DD9A01C0DD98E881E07811F0DE9A01C0D7
:10057C00DE988DE08A95F1F7DA9A8DE08A95F1F79D
:10058C00DA988DE08A95F1F778C0AA93A881D8DF24
:10059C00E881E295E883A881D3DF85E88A95F1F7B5
:1005AC006CC0AA93E881F0E0EA5DFA4FE081A98182
:1005BC00AE0FEBDF5980488022960895A2E00E948E
:1005CC00B603ACE0E2DFA1E00E94B603E0E04E2E01
:1005DC005E2E0895AA93A881AA3011F0571448F002
:1005EC00E0E0EA934394A42DDCDFA881AA3009F45F
:1005FC0044C05394D89AA881C8DFD8983EC0BA9307
:10060C00AA931A93A981BA81ED91A983BA831E2F5B
:10061C00E03019F0A12FDEDFF5CF18812396089575
:10062C00AA93D39AD49AD59AD69AD29AD09AD19A86
:10063C00DA98D898D9987880E881E058E093280522
:10064C00E881E054E0932905A4E1B0E00E94C403E2
:10065C000E94BC030E94BC030E94BC03A0E270DF9A
:10066C0088EC90E00197F1F7A8E28FDFA4E08DDF32
:10067C00A5E88BDFA6E089DFA1DF21960895BA9368
:10068C00AA93A991B991EE27FF276D91662311F0DA
:10069C003196FBCF0895BA93AA93AA27BB27E99169
:1006AC00F9910590002011F01196FBCFFD010895F2
:1006BC00E0E0EA93A0E00E94D702E2E1F5E0FA93D1
:1006CC00EA93E0EBF0E0FA93EA93A6E0A29FF00144
:1006DC00A39FF00DE050FB4FDF01FA01EE0FFF1F5F
:1006EC00AE0FBF1F0E94DB030E94D6030E94E303E0
:1006FC0084E00E9472022896A2E1B5E00E940503F4
:10070C00A4EFB1E00C94C4032A93AD85BE85EF85AC
:10071C00F88909950895E889F9893497E88BF98B5C
:10072C000895AD85BE85EF85F88909950895A8894A
:10073C00B98914960E94DB03EE83FF83AE81BF81DF
:10074C000895A889B98914960E94DB03EA87FB8770
:10075C000895DE011C960E94CE030E94DB030895CF
:10076C000E94CB02A3E0B0E00C94C403A0E30E946F
:10077C00A60288EC90E00197F1F70895109639F0F5
:10078C0080ED97E00197F1F7A8951197C9F70895B7
:10079C000024AF0DB01D0895F195E195F04008953A
:1007AC006F2F660F660B762F0895ED91FC911197C4
:1007BC0008950590F491E02D08957A936A93FA9335
:1007CC00EA9308955A934A933A932A931A930A9365
:1007DC0008955D814C813B812A811981088108959E
:00000001FF
